:020000040800F2
:1000000010020020D5000008D50B00081B0A0008CC
:1000100000000000000000000000000000000000E0
:100020000000000000000000000000005115000862
:100030000000000000000000D70B0008E5160008D3
:10004000E700000800000000E7000008E7000008E3
:10005000E7000008E7000008E7000008E7000008E4
:10006000E7000008E7000008E7000008E7000008D4
:10007000E7000008E7000008E7000008E7000008C4
:1000800000000000E7000008000000000000000081
:1000900000000000E7000008E7000008E700000893
:1000A00000000000E700000800000000E700000872
:1000B0000000000000000000000000000000000040
:1000C0000348854600F07AFB004800471D220008DF
:1000D000100200200448804704480047FEE7FEE77E
:1000E000FEE7FEE7FEE7FEE7E9160008C1000008AC
:1000F00030B50B46014600202022012409E00D46C0
:10010000D5409D4205D31D469540491B2546954047
:1001100040191546521E002DF1DC30BDF8B50246DF
:100120004A40D40F42004B0052085B089A4202D268
:100130000246084611464A0023D0C30D4A00DDB2EC
:10014000120EAD1A202D35DA49020126490AF605AC
:100150008A19002C00D0524220214F1B1146B94071
:100160002A411018C20D9A4221D0002C17D0012D1F
:1001700008DCDA05801AD20F8019D207DBB200F052
:100180001DF9F8BDDA05801A012340001B06C018CE
:1001900080185A428018CA0F1043490007E04908E6
:1001A000C2071143DA05801A80194008801800F050
:1001B000FDF8F8BD61000122511A001BF7E701228A
:1001C000D2075140AAE70122D2075040A6E70246D3
:1001D00070B54A40D30FDB0740002DD04A002AD02B
:1001E000010E140E000212020919400A520A841864
:1001F000E50104465443000A120A2E045043A41990
:100200004219200CC543AA18120C0125AD03521C3B
:10021000521912047F39240400D0521C104301D417
:100220004000491EC2B20C06C0092018401C4008FC
:10023000802A02D003E0002070BD40084000002961
:1002400000DA0020184370BD70B502464A40D50F51
:1002500040004A00ED0740085208002814D0002A48
:1002600012D0C40DD30D41020120C0055202490A2B
:10027000520AE41A091812187D34914201D3641C01
:1002800000E04900002C01DA002070BD00239142FB
:1002900001D3891A0343400849000028F7D10029F7
:1002A0000AD0914202D10121C90705E0914201D251
:1002B000012101E00121C943E005C018401900F007
:1002C00075F870BD10B500229623114600F076F83F
:1002D00010BD410040020122400AD205090E8018DB
:1002E0007F2901DA00207047962903DC9622511AF3
:1002F000C8407047963988407047C20FD207400007
:1003000040080BD0C10D0723DB01C91840020905C5
:10031000400A1143C20840071143704700200146BC
:10032000704700000122D207002800DB101A0029C4
:1003300000DB511A814270470122D207002800DBFE
:10034000101A002900DB511A88427047F0B51FB41B
:100350000646002082B005464024019100901BE033
:10036000019922460F46304600F04AFA049A059B4E
:10037000801A994110D310461946224600F030FAEF
:10038000361A8F410197224601200021009F00F07C
:1003900027FA38184D4100902046641E0028DFDC03
:1003A000019B00982946324607B0F0BD002904DAC7
:1003B000401C490001D140084000704770B400243F
:1003C000050C05D11024000402D1002921D01124EC
:1003D000050E01D100020834050F01D10001241DD2
:1003E000850F01D18000A41C002801DB4000641CA3
:1003F000002908D020252E1B0D46F540A14000D035
:1004000001212943084301061B1B000ADB1D02D5FD
:10041000002070BC7047DB05181880180029F8DA36
:10042000401C4900F5D170BC4008400070470000F6
:10043000F0B507460846584087B0C00F0490480002
:100440000E46590040084908BC1A884105D2384672
:1004500031461E4617460B460246580040081043D8
:100460004CD0300D039040055900400D490D0590CA
:10047000401A0290402872DA18030121000B090586
:100480000843019004980092002805D00199524237
:100490000020884100920190029840210A1A019997
:1004A000009800F09DF905460C466B4607CB00F01E
:1004B000B8F9C0197141039A0E0D0023D7175640A1
:1004C0001A467A40164344D0049A002A2DD0029A44
:1004D000012A039A15DC1205C01A9141012636053E
:1004E000001C7141D20F059ED20700930192029623
:1004F0002A46234600F0B5F907B0F0BD384631462C
:10050000FAE71605224A0F46B218C01AB741012170
:100510000905001C4F4100187F4111461818794108
:10052000E20F10436D19644113E0E2076D081543B3
:100530006408C2071443039A01261205C01A9141A8
:100540003605001C7141CE07400830434908C018E9
:1005500051412A46234600F077F9CDE7FFE704989A
:1005600001224000C117121A00238B410498314622
:10057000C417381AA141EEE730B40124E407634000
:1005800030BC55E730B40124E407614030BC4FE78C
:100590000000E0FFF0B51FB488B00B990998002463
:1005A00048400999C00F490049080991C0070B99B3
:1005B0000090490049080B9109990898A6460843FC
:1005C0001CD00B990A98084318D0099801244000C0
:1005D000420D4800410D099824050003000B2043FB
:1005E00009900B980003000B20430B9050181C49F6
:1005F0004018002201901446104605E000200146F4
:100600000DB0F0BD032801DA034600E003239C4649
:10061000C11A0AAE0AE05F0008ADED5B4F00F75B60
:100620007D430027AA187C41491C5B1E6145F2DD11
:10063000410004AB5A522104120C0A43240C401C02
:100640000828DFDB01980290009970460191009024
:10065000059B049A0799069800F003F9D0E700007B
:100660000DFCFFFFF0B50C465C4085B0E40FE407DD
:1006700003944C0000266408590094464908024639
:100680000296224321D062460A431ED06200570DD3
:100690004A000E032303550D012402462C4924056C
:1006A000781B1B0B360B40182343264361460090F2
:1006B0001C46501AB44103D30098401C009002E03D
:1006C000921800985B41002803DA0020014605B02B
:1006D000F0BD0020012109050746864611E0644669
:1006E0001D46141BB54106D36546521BB3417446E3
:1006F00007430C43A646CD074008490828439218F3
:100700005B4105460D43EAD11046184313D06046BD
:10071000194650407140084306D06046101AB34154
:1007200006D20122002306E000220123DB0702E0BB
:100730000122D2435310009874460105381C6141D0
:10074000029C039D0019694100F07EF8BFE700009C
:10075000FD0300004A0009030123090B1B0519438F
:100760000A4B10B5520D9A4202DA0020014610BD24
:10077000064B34339A4203DC9A1A00F041F810BD5C
:10078000034BD21800F02CF810BD0000FF0300004E
:10079000CDFBFFFF10B5002904DB0124E407404234
:1007A0008C412146002B04DB1C460123DB0752420F
:1007B000A341994200D1904210BD0000064C012592
:1007C000064E05E0E36807CC2B430C3C98471034F9
:1007D000B442F7D3FFF778FC98230008B823000849
:1007E00010B5202A04DB0146203A9140002010BDBC
:1007F000914020239C1A0346E3401943904010BDCA
:1008000010B5202A04DB0846203AD040002110BD54
:100810000B46D340D0402024A21A914008431946E9
:1008200010BD10B5202A06DBCB170846203A104130
:10083000C1170B4306E00B461341D0402024A21AF7
:1008400091400843194610BD10B5002B08DA00246A
:10085000401C614192185B411A4301D1400840009D
:1008600010BDF0B51FB482B005460C0003D0084699
:1008700001F038F802E001F035F82030024600902F
:1008800021462846FFF7ACFF049B059A04460F4615
:1008900018431143084314D0184610431BD0009846
:1008A00040210A1A18460599FFF7AAFF05460E4689
:1008B000009A05990498FFF793FF084305D001209B
:1008C00004E02046394607B0F0BD0020C1170543BB
:1008D0000E432C43374300990E986305401A79055F
:1008E000E40A00220C43FD0A0A3002D5002001462A
:1008F000E9E70105101969410C9C0D9D001969413A
:10090000FFF7A2FFDFE78100401800BF411E081E6D
:10091000FCD17047F0B500220023002400BF3DE069
:10092000012595402B460D681D402C469C4234D134
:100930000D79012D02D00D79022D16D18568570051
:100940000326BE40B54385604D795600B5408668A4
:1009500035438560456801269640B5434560456846
:100960008E799640B6B23543456005685700032638
:10097000BE40B54305600D795600B5400668354365
:100980000560C56857000326BE40B543C560CD79F4
:100990005600B540C6683543C560521C102ABFD307
:1009A0000D7A002D04D1056B0E683543056303E015
:1009B000056B0E68B5430563F0BDF0B50023002458
:1009C0004D07EE0E1546B5402B46CD10AE00054640
:1009D0002035AD594E07F70E0F26BE40B543CE1059
:1009E000B60007462037BD51CD10AE003D46AD598B
:1009F0001D432C46CD10AD003E467451F0BD02465D
:100A0000002013690B40002B01D0012000E00020E2
:100A10007047816270478161704700BFFEE7000048
:100A2000F8B504460E4600270020207000F030FE86
:100A300040212148FFF7EDFF0520FFF764FF8025E7
:100A400015E040211C48FFF7E6FF0520FFF75BFF9C
:100A500000F040FE002802D020782843207040217A
:100A60001548FFF7D6FF0520FFF74DFF6D10002D4D
:100A7000E7DC00F01FFE0120FFF745FF002E04D148
:100A800020210D48FFF7C5FF03E020210A48FFF7AA
:100A9000C2FF0520FFF737FF40210748FFF7BBFFE4
:100AA0000520FFF730FF40210348FFF7B2FF052084
:100AB000FFF729FF3846F8BD0008004810B520218F
:100AC0000E48FFF7A8FF00F0F5FD0120FFF71BFF20
:100AD00040210A48FFF79FFF0520FFF714FF202160
:100AE0000648FFF796FF0A20FFF70DFF4021034855
:100AF000FFF78FFF0A20FFF706FF10BD0008004830
:100B000010B500F0D7FD40210D48FFF782FF05200A
:100B1000FFF7F9FE20210A48FFF77BFF0520FFF7CA
:100B2000F2FE40210648FFF776FF0A20FFF7EBFEB2
:100B300020210348FFF76FFF0A20FFF7E4FE10BDF6
:100B40000008004870B50546002600F0B3FD4021BE
:100B50001F48FFF75EFF80241EE020462840002843
:100B600004D120211A48FFF754FF03E02021184840
:100B7000FFF751FF0520FFF7C6FE40211448FFF79D
:100B80004AFF0520FFF7BFFE40211148FFF741FF54
:100B90000320FFF7B8FE6410002CDEDC00F078FDC7
:100BA0000320FFF7B0FE40210948FFF734FF032080
:100BB000FFF7A9FE00F08EFD002800D0012640219D
:100BC0000348FFF726FF0220FFF79DFE304670BD69
:100BD0000008004870477047002905D0054A52694F
:100BE0000243044B5A6104E0024A52698243014BBA
:100BF0005A61704700100240002905D0054A9269E9
:100C00000243044B9A6104E0024A92698243014B19
:100C10009A6170470010024070B504460025002616
:100C2000424840680C2108400546002D04D0042DA0
:100C300005D00C2D0AD105E03D48206009E03C4874
:100C4000206006E07D208002206000BF38482060E0
:100C500000BF00BF35484068F021084005462D0917
:100C6000680034490E5A31462068FFF741FA606047
:100C70002E48406807210902084005462D0A2E48E3
:100C8000465D6068F040A0602C480069800F8007D6
:100C900000280DD12548C030806A1F2189060840F0
:100CA0000546AD0EA91C2648FFF722FAE06016E0C3
:100CB00022480069800F800701218907884203D0FC
:100CC000A0684008E0600AE01C480069800F8007C7
:100CD0000121C907884202D0A0688008E06013485B
:100CE000006B10210840102802D01148206101E05B
:100CF000206820610D48006B8007800F002802D11A
:100D0000A068606110E00948006B8007800F01282F
:100D100002D12068606107E00448006B8007800F03
:100D2000032801D10248606170BD0000001002403C
:100D30000048E801702300089023000800240140C7
:100D40000090D00370B502460B46FF20002115E04D
:100D5000555C684008240DE080250540002D05D035
:100D60004500FF2632367540E8B201E04506280E00
:100D7000651EECB2002CEFDC4D1CE9B29942E7DBBA
:100D800070BD000070B504462046FFF79BFA06468A
:100D90000349FFF71CFA05460249FFF755FA70BDF3
:100DA0000000C84200FF7F4770B504460649204650
:100DB000FFF74AFA06460549FFF709FA0546FFF725
:100DC00088FA80B270BD00000000C84200FF7F4773
:100DD000F8B5044608492046FFF7A0F90746074939
:100DE000FFF732FA06460649FFF7F1F90546FFF725
:100DF00070FA80B2F8BD00000000344200002F43BA
:100E000000FF7F47F8B504462046FFF75BFA074628
:100E10000549FFF7DCF906460449FFF715FA0546D0
:100E20000349FFF7CCF9F8BD00002F4300FF7F47CF
:100E300000003442F8B505460E46144631462846B1
:100E4000FFF780FF0746A74201D00220F8BD00202F
:100E5000FCE7000010B500F0DFFA0446002C03D1D7
:100E6000034800F03DFB044600F0E4FA204610BDC4
:100E700041300000FFB581B006460F461D46002DEB
:100E800002D0012D10D107E0394630460A9B039A63
:100E900000F010F8044609E0394630460A9B039AF0
:100EA00000F054F8044601E0802400BF00BF204653
:100EB00005B0F0BDFFB583B005460E46174600F0FD
:100EC000ABFA0446002C19D1002F0ED0012F06D00A
:100ED000022F10D11C4800F003FB04460DE01A4815
:100EE000C01E00F0FDFA044607E017480A3800F07B
:100EF000F7FA044601E0802400BF00BF002C02D1B5
:100F000000F07AFA0446002C05D1002102A8069AC6
:100F100000F0E4F80446002C05D10022012101A8CC
:100F200000F0DCF8044600F085FA002C09D1684690
:100F30000089FFF767FF286068468088FFF722FF77
:100F40003060204607B0F0BD102C0000FFB583B024
:100F500006460F461D4600F05FFA0446002C1AD1E3
:100F6000059800280ED0012806D0022810D1244868
:100F700000F0B6FA04460DE021480B3800F0B0FA54
:100F8000044607E00920800200F0AAFA044601E0C6
:100F9000802400BF00BF002C13D109E000F02CFA20
:100FA0000446002C00D108E07D20C000FFF7ABFC18
:100FB0002846691ECDB20028F0D100BF002D00D117
:100FC0000424002C0BD10022114602A800F086F860
:100FD00004430022012101A800F080F8044300F03E
:100FE00029FA002C09D168460089FFF70BFF306011
:100FF00068468088FFF7C6FE3860204607B0F0BD1F
:101000001624000010B504210920C006FFF701FDD9
:101010000548FFF778FC04210920C006FFF7FBFC18
:101020000248FFF770FC10BDA086010050C300000D
:101030003EB50446012105204004FFF7CDFD042004
:1010400000900121684601710021817101214171E7
:1010500069460920C006FFF75DFC04210920C0068F
:10106000FFF7D7FC022000900021684601710121A2
:1010700041710021C17169460920C006FFF74AFC91
:101080002020009001216846017141718171C17178
:1010900069461148FFF73EFC402000900121684658
:1010A0000171417181710021C17169460A48FFF7E0
:1010B00031FC00F0FFFA40210748FFF7ACFC20218B
:1010C0000548FFF7A8FC204600F0E0F804210920BD
:1010D000C006FFF7A0FC3EBD00080048FEB505466F
:1010E0000E4617463A46002101A8FFF799FC044630
:1010F000002C06D10022114601A80130FFF790FC18
:101100000446002C05D1002231466846FFF788FCD2
:101110000446002C06D168460278022101A8FFF798
:1011200089FE044669460879000249790843288007
:101130002046FEBD7CB505460E4600F06DF904461E
:10114000002C04D10720400300F0CAF90446002C0B
:1011500002D100F051F90446002C05D100221146BD
:1011600001A8FFF7BBFF0446002C05D10022012196
:101170006846FFF7B3FF0446002C09D16846808813
:10118000FFF740FE286068460088FFF7FBFD3060EF
:1011900000F050F920467CBD70B5054600F03CF9E2
:1011A0000446002C03D10A4800F09AF90446002CAA
:1011B00002D100F021F90446002C05D100220121C2
:1011C0002846FFF78BFF044600F034F9204670BD37
:1011D0002DF30000FFB581B0074615461E4600F00E
:1011E0001BF90446002C03D1274800F079F9044686
:1011F000002C04D13846029900F03EF9044600F074
:1012000019F9002C12D100F007F90446002C04D182
:101210001D48C01F00F064F90446002C04D131467B
:10122000284600F029F9044600F004F9002C12D1F8
:1012300000F0F2F80446002C04D11348123800F0F4
:101240004FF90446002C04D10B990A9800F014F9C8
:10125000044600F0EFF8002C12D100F0DDF804464F
:10126000002C04D16120000200F03AF90446002C61
:1012700004D10D990C9800F0FFF8044600F0DAF85C
:10128000204605B0F0BD00001D6100000149087056
:10129000704700000000002010B500F0BDF80446C3
:1012A000064800F01DF9044300F0C4F8002C02D1F8
:1012B0000348FFF728FB204610BD0000A2300000C5
:1012C00050C3000070B506460D4600F0A5F8044670
:1012D000002C6FD1002E54D0012E28D0022E7BD1AD
:1012E0002B0000F016FB0504090F141A1F003E48DE
:1012F00000F0F6F8044318E03B48FE3000F0F0F848
:10130000044312E0394800F0EBF804430DE037489D
:10131000FE3000F0E5F8044307E0354800F0E0F85F
:10132000044302E08020044300BF00BF57E02B00CD
:1013300000F0EFFA05040A10161C22002A480B38A8
:1013400000F0CEF804431AE02748F73000F0C8F860
:10135000044314E025480B3800F0C2F804430EE0C3
:101360002248F73000F0BCF8044308E02048093870
:1013700000F0B6F8044302E08020044300BF00BF41
:101380002DE02B0000F0C5FA05040A10181D2300FB
:101390001548C01C00F0A4F804431BE01348FB38B8
:1013A00000F09EF8044315E010480B3000F098F868
:1013B00004430FE014E00FE00E4800F091F80443FE
:1013C00008E00B480D3000F08BF8044302E0802069
:1013D000044300BF00BF02E08020044300BF00BF01
:1013E00000F028F8204670BD2F2000002B220000BE
:1013F0002A2700003423000010B5FFF75FFB0549E2
:1014000009784900491CC8B2FFF79CFB04462046F6
:1014100010BD00000000002010B5FFF74FFB04498D
:1014200009784906080EFFF78DFB0446204610BDDB
:101430000000002010B5FFF763FB10BDF8B50446AF
:1014400021126846017044700221FFF77BFC0646BA
:1014500069460878FFF776FB0546002D04D16946FA
:101460004878FFF76FFB0546002D03D13046FFF7A4
:1014700069FB05462846F8BDF3B581B00D4600214D
:101480000198FEF74FFF0ED312490198FEF754FF63
:1014900009D311492846FEF745FF04D30F492846D2
:1014A000FEF74AFF01D2802411E00198FFF77CFC8F
:1014B00006B22846FFF78CFC07B27F214902314073
:1014C0003A04D20D11430846FFF7B8FF0446204600
:1014D000FEBD00000000C842000034C2000002430C
:1014E00070B504462012FFF72DFB0546E0B2FFF76A
:1014F00029FB0543284670BD38B50546FFF78CFF2C
:1015000004466F20C001FFF7EBFF0443002C02D11B
:10151000FFF772FF0446002C05D1642200216846C3
:10152000FFF7DCFD0446002C06D10022012100A8B3
:101530000230FFF7D3FD0446FFF77CFF002C05D1F6
:10154000694608880004498808432860204638BD59
:1015500070470000F8B50025002600270020009005
:1015600000240E48056A280C0090ACB20098204078
:1015700000280FD10A4807680A480740E006000E15
:101580006105890E09020843064605480068304394
:101590000349086000F008F8F8BD000000F8FF1FDC
:1015A000001002400700FFFF85B000200490039068
:1015B00002900190009033480068012108433149AE
:1015C00008603048C030806A0F21C90288432D4925
:1015D000C03188620846806A0721C9020843294948
:1015E000C031886200BF274800680221084003908C
:1015F0000498401C04900398002803D122490498C1
:101600008842F0D11F48006802210840002802D01B
:101610000120039001E000200390039801282FD1BE
:101620001A48006802900298C008C0000290022187
:101630000298084315490860124840680190F0215B
:101640000198884301900F49019848600846406816
:1016500000900721090200988843009009490098EA
:101660004860084640688008800048600846406836
:10167000486000BF034840680C2108400028F9D1A9
:1016800005B0704700100240FFFF0000002002403C
:101690000EB52020009000216846017101214171A2
:1016A0008171C17169460248FFF734F90EBD00002F
:1016B000000800480EB52020009001216846017105
:1016C00041710021C17169460148FFF723F90EBD40
:1016D0000008004810B520210148FFF790F910BD1F
:1016E000000800487047000010B50D48006801214F
:1016F00008430B490860084640680A490840084901
:1017000048600846006B13218843054908630020A0
:101710008860FFF71FFF00200349486310BD0000E9
:10172000001002401CB8FFF840200240002904D0FD
:10173000026801231A43026003E002685208520063
:101740000260704700B589B0012109204004FFF70D
:1017500043FA01218803FFF74FFA012203210920F0
:10176000C006FFF72AF9012206211748FFF725F9DD
:101770000820069002216846017701214177002167
:101780008177C17706A90920C006FFF7C3F840207A
:10179000069002216846017706A90B48FFF7BAF8C0
:1017A000E1204002009000200190029003900590FB
:1017B0000C2004906946054800F014F80121034804
:1017C000FFF7B4FF09B000BD000C0048003801402D
:1017D00002460020D3690B40002B01D0012000E01D
:1017E00000207047F0B587B004460D460027002062
:1017F00006900026206840084000206066680321AB
:101800000903304688430646A86806436660266892
:1018100027480640E9686868084329690843064381
:101820002660A66803210902304688430646686997
:101830000643A6606846FFF7EFF91E48844202D1CE
:101840000598069001E00298069020680121C903DE
:10185000084000280CD02968069A5000FEF748FC82
:1018600007462968069A5000FEF742FC0E4609E03A
:1018700029680698FEF73CFC074629680698FEF79B
:1018800037FC0E4628684008B04200D87F1C20680C
:101890000121C9030840002806D03807460F384602
:1018A0000549084030430746B8B2E06007B0F0BDD4
:1018B000F3E9FFFF00380140F0FF0000CA05D20D38
:1018C000826270470FB410B503A9044B044A029812
:1018D00000F0F6F810BC08BC04B01847F921000865
:1018E0000C0000202021020C01D010211046020A19
:1018F00001D010460839020901D01046091F82089C
:1019000001D01046891E420801D0881E7047081A6F
:10191000704730B47446641E2578641CAB4204D30F
:10192000635D5B00E31830BC18471D46F8E702E032
:1019300008C8121F08C1002AFAD17047704700205A
:1019400001E001C1121F002AFBD17047F0B51FB49E
:1019500086B00998089A030D0021024314D051481B
:10196000514A1818504305141198012810981AD09C
:10197000281A401C00264D4F4D49009601910490B5
:10198000002812DA444211E01198012449A30128E9
:1019900001D11098C1430698119A84600360C26017
:1019A00041600BB0F0BD4042E4E704462105002051
:1019B0003F4A001C51410391029012E0E00707D01A
:1019C00032463B4601990098FEF7E4FD01910090F4
:1019D00032463B4610461946FEF7DCFD06460F46EA
:1019E0006410002CEAD10498039B0028029A0999FC
:1019F000089806DAFEF7CEFD019B009AFEF7CAFDB5
:101A000005E0FEF72FFE019B009AFEF72BFE044631
:101A10000E460022284BFEF7BDFE03D80020C0432F
:101A2000014607E00022254B20463146FEF700FD27
:101A3000FEF790FE102409E0002C0ADB0A220023A6
:101A4000FEF784FC079B30321A55641E02460A4397
:101A5000F2D11122641C079B121B1C19119B012B34
:101A600003D0012308430ED10AE0084304D011201B
:101A700010900020119077E71098151A6D1E0BE05A
:101A80001098824202DD00236D1C03E0824201DADD
:101A900000236D1E002BEED0069811998260C16064
:101AA00030C07EE701FCFFFF104D00000000144035
:101AB0000000F03F300000000000F0430000E03F75
:101AC000FFB597B00646002518E2252877D10024F7
:101AD0002746FD49049400E00443761C3278012037
:101AE000203A90400842F7D130782A280ED00222BE
:101AF000307801463039092916D804990A23594308
:101B0000303940181443761C0490F1E7189802C845
:101B100004911890002904DA01204003044348424C
:101B2000049002200443761C30782E2814D104201F
:101B300004437078761C2A2809D11898761C80C82E
:101B4000189009E00A214F43303FC719761C3078BE
:101B5000014630390929F5D930786C2810D006DCD7
:101B60004C281AD068280ED06A2817D104E07428AF
:101B700013D07A2812D110E00120400504430CE074
:101B80000121090501E0032109050C437178814217
:101B900003D1012000052418761C761C30781190A2
:101BA00066280BD013DC58287DD009DC00287BD0B8
:101BB0004528F6D04628F4D047281AD1A5E118E0E8
:101BC000632835D0642870D0652812D19DE1702833
:101BD0006CD008DC6728F1D069287BD06E280DD046
:101BE0006F2806D1BAE073282ED0752871D07828D6
:101BF00059D01A9A199990476D1C7EE16002400FE6
:101C0000022809D003280DD00428189801680DD0A7
:101C10000D60001D189070E11898EA1701680D60BA
:101C20004A60F6E7189801680D80F2E70D70F0E75A
:101C300018986A4601781172001D189000205072A1
:101C400002A80090012005E0189802C81890002012
:101C50000091C04361070DD5002101E00199491CA5
:101C60000191B94212DA8142F8DB009A515C0029F5
:101C7000F4D10BE0002101E00199491C019181425E
:101C8000FADB019A0099895C0029F5D10199049841
:101C90001A9B471A21463846199A00F097FA01997B
:101CA000401945180BE04FE02CE113E04EE000989E
:101CB00000990078491C00911A9A19999047019847
:101CC000401E0190401CF2D1214638461A9B199AB9
:101CD00010E137E00A200021009001916002410FDD
:101CE000022907D0189A01CA1892C21794460329EC
:101CF00008D00AE01898C01DC108C90005C918918C
:101D0000944607E000B2C2179446042902D140B2BB
:101D1000C1178C4600226146944506DA0A46002126
:101D2000404291418C462D2102E0210504D52B2112
:101D30006A461173012103E0E10701D02021F7E792
:101D4000029155E00A200AE0102008E010200090DF
:101D50000021042004430191082703E0082000210A
:101D6000019100906002410F022907D0189A01CA20
:101D7000189200229446032908D008E01898C01D44
:101D8000C108C90005C91891944603E080B204292E
:101D900000D1C0B200210291210729D511997029E3
:101DA00006D0009A1021019B4A401A4305D00EE04C
:101DB00040216A461173012108E06146014306D0C3
:101DC00030216A4611731199517302210291009AD0
:101DD0000821019B4A401A430AD16146014301D1BF
:101DE000610705D530216A46117301217F1E0291DA
:101DF0001199582904D035A10E910DA90D910DE02E
:101E000037A1F9E76146019B009AFEF79FFA0E9B06
:101E10008C469B5C0D9A521E0D92137061460143D5
:101E2000F0D10D9805A9081A20300190600703D55C
:101E300001200004844300E001270198874201DD6E
:101E4000381A00E000200199009041180298091802
:101E50000498401A0490E00306D421461A9B199A6C
:101E6000049800F0B3F94519002706E003A81A9A70
:101E7000C05D199990476D1C7F1C02988742F5DB65
:101E8000E0030CD521461A9B199A049800F09EF99C
:101E9000451904E01A9A3020199990476D1C009951
:101EA000481E00900029F5DC08E00D980D99007897
:101EB000491C0D911A9A199990476D1C0199481E59
:101EC00001900029F1DC63E109280100303132334F
:101ED0003435363738396162636465660000000066
:101EE0003031323334353637383941424344454650
:101EF0000000000000F05AF94519761C30780028DF
:101F000000D0E2E528461BB0F0BD600700D40627EC
:101F10001898C01DC108C90048680A680831C30F75
:101F2000DB071891190001D09CA108E0210501D51B
:101F30009BA104E0E10701D09AA100E09AA143002F
:101F400011985B08109165280CD006DC452809D053
:101F500046281DD0472841D141E0662818D067287F
:101F60003CD13CE00021112F01DB112000E0781C66
:101F70000191009008A911A8FFF7E8FC13990591B9
:101F80000021119A15927F1C12980197009150E040
:101F90000120C00703900120019008A9009711A813
:101FA000FFF7D4FC139A149905920022119B00921A
:101FB00012981593059A0192002901D0104602E06B
:101FC000791C40180190381A01D5019804E040426C
:101FD000401E0090781C0190C01B029043E0012F2E
:101FE00000DA01270021112F01DD112000E0384621
:101FF0000191009008A911A8FFF7A8FC1399059179
:10200000119A0021129815920091019721070CD482
:102010000599B94201DB019900E00191012904DD34
:10202000159A491E515C302906D0B84201DA011DCB
:1020300005DA0121029115E00199491EEDE700281A
:1020400005DC0099411800910199091A03E0019AF1
:10205000411C914200DD01910099401A401C029000
:102060000120C0070390200706D4029901988142FD
:1020700002DB0020C043029000206946C87707AF0A
:10208000012103980337C907884224D00220119008
:102090002B201290039800280CDA404203902D2048
:1020A000129007E00A210398FEF722F830317F1ED4
:1020B000039039701199481E11900029F2DC0398A1
:1020C0000028EFD1791E129808703078202108403E
:1020D0004530BF1E387006A8C01BC01D0390109865
:1020E0000078002800D00120019941180298C017FB
:1020F0000918039809180498401A401E0490E00338
:1021000006D421461A9B199A049800F05FF84519E5
:1021100010980078002803D01A9A199990476D1CDE
:10212000E00324D521461A9B199A049800F04EF832
:1021300045191CE00098002807DB009905988842A3
:1021400003DD1598405C199901E0199930201A9A1D
:10215000904700986D1C401C00900298401E029011
:10216000002804D11A9A2E20199990476D1C0199C4
:10217000481E01900029DDDC05E038781A9A7F1CA2
:10218000199990476D1C0399481E03900029F4DCAF
:1021900021461A9B199A0498ACE600002D00000015
:1021A0002B0000002000000000000000F8B50446ED
:1021B00000251E461746880404D405E03946202031
:1021C000B0476D1C641EF9D52846F8BDFFB504461E
:1021D000002581B01E46C80301D5302700E0202726
:1021E000880404D505E038460399B0476D1C641E89
:1021F000F9D5284605B0F0BD70B504460D46E1B2EC
:102200000548FFF75BFB00BF80210348FFF7E0FABA
:102210000028F9D0204670BD0038014088B0FFF793
:1022200091FA3DA0FFF74EFB4420FEF701FF3E4828
:10223000FEF769FB07A8FFF75FF906463BA0079981
:10224000FFF740FB66E0002657E006A8FEF7A4FF74
:102250000643002E00D052E06846008B0005C00FF8
:10226000002820D0344835498A0221235B06009398
:10227000019202910390324B324A33493348FEF7C0
:10228000A9FF0646002E00D039E0FEF7E3FD064622
:10229000002E00D033E001210020FFF713F806469E
:1022A000002E00D02BE032200123002204A9009050
:1022B00005A8FEF7DFFD064604A905A8FEF73AFFCC
:1022C0000646002E04D0012E01D1002600E016E0C3
:1022D0000598FEF712F8044622460B461CA0FFF7AD
:1022E000F1FA0498FEF709F8044622460B461BA0B3
:1022F000FFF7E8FA1C48FEF706FB002EA5D000BF4A
:10230000FEF7CAFF0646002E01D0FEF77BFE1748F7
:10231000FEF7F9FA97E700000D0A205348543330CE
:1023200020546573740D0A0050C3000053485420B4
:10233000534E3D25780D0A00000080C00000F0419A
:1023400000004042000088420000484200008C42E9
:1023500054656D703A2025660D0A000048756D6958
:102360003A2025660D0A000040420F0010270000A9
:102370000100060001000100010001000100010050
:10238000020004000800100040008000000100026C
:102390000000000001020304B82300080000002030
:1023A000100000002E190008C823000810000020AB
:1023B000000200003E1900080000000000A000001C
:0823C000000000000000000015
:04000005080000C12E
:00000001FF
